:020000041000EA
:1000000000B5324B212058609868022188439860DF
:10001000D860186158612E4B002199600221596106
:100020000121F02299502B49196001219960352056
:1000300000F044F80222904214D00621196600F024
:1000400034F8196E01211966002018661A6600F04E
:100050002CF8196E196E196E052000F02FF8012189
:100060000842F9D1002199601B49196000215960AB
:100070001A491B48016001219960EB211966A021F2
:10008000196600F012F800219960164914480160C1
:100090000121996001BC002800D000471248134993
:1000A000086003C880F30888084703B5996A0420EC
:1000B0000142FBD001200142F8D103BD02B5186610
:1000C0001866FFF7F2FF186E186E02BD00000240BE
:1000D000000000180000070000035F00212200005C
:1000E000F4000018222000A00001001008ED00E03C
:1000F00000000000000000000000000074B24E7A12
:1001000000200420F7010010C3010010C5010010F9
:10011000C1010010C1010010C1010010C101001097
:10012000C1010010C1010010C1010010C701001081
:10013000C1010010C1010010C9010010CB01001065
:10014000CD010010CD010010CD010010CD01001037
:10015000CD010010CD010010CD010010CD01001027
:10016000CD010010CD010010CD010010CD01001017
:10017000CD010010CD010010CD010010CD01001007
:10018000CD010010CD010010CD010010CD010010F7
:10019000CD010010CD010010CD010010CD010010E7
:1001A000CD010010CD010010CD010010CD010010D7
:1001B000CD010010CD010010CD010010CD010010C7
:1001C00000BE00BE00BE00BE00BE00BE00F04BF888
:1001D000103800BEF2EB88712477051044770510C3
:1001E0003402001090A31AE700202149086006C8D5
:1001F00081F3088810471F48006800282FD10DA4FC
:100200000ECC002902D000F012F8F9E71A491B4A77
:10021000002000E001C19142FCD1194988471949E9
:1002200088471949884700BEFDE701C901C29A42C3
:10023000FBD3704744770510C00000203C1F00200E
:10024000C09505100000042000000420C095051092
:1002500000100420001004200000000070470B482C
:1002600004F026FE0047EFF30580C0B2704700009F
:1002700008ED00E0000000D0401F0020EC45002009
:10028000913700100D0800104D3700105756000030
:1002900006005250ABB3605398AC041006005250A5
:1002A000861C0302A8AC0410060052505422A29DE2
:1002B000B0AC041005005250DE65F468C09505101E
:1002C000F8B5C04610B5064C2378002B07D1054B76
:1002D000002B02D0044800E000BF0123237010BDB2
:1002E0004820002000000000C8980410044B10B5FE
:1002F000002B03D00349044800E000BF10BDC046F6
:10030000000000004C200020C898041070B584B094
:1003100004000D00012806D0002C02D1184B9D428C
:1003200024D004B070BD164B9942F5D1154809F0A0
:100330009DFA012300931A3300221A21124800F07B
:1003400027FC124E02AA3100114826F019FE03AA1A
:100350003100104826F014FE02F07AFEFA229200D4
:10036000002304F03BFE0C4B1860D5E7094826F04B
:10037000A7FA074826F0A4FA024809F087FAD0E75E
:10038000FFFF0000EC36002038420020B499041032
:100390007C20002064200020E441002010B505F0FE
:1003A0007DFD034B196805F026FD05F099FD10BD94
:1003B00074130020F0B5D6464F464646C0B5804679
:1003C0008A4691461D0000241FE04046FFF7E6FFE5
:1003D00007005046FFF7E2FF06004846FFF7DEFF42
:1003E0003B061B0C3204FF2109040A401343FF2281
:1003F00010401843A300114A98500002104B5B684C
:10040000DB03FBD40E4B18610134112C0CD8A54230
:10041000DBD0A300094A9A581202094B5B68DB0340
:10042000FBD4074B1A61EFE76E20002102F048FD74
:10043000E0BCBA46B146A846F0BDC046EC4100203B
:100440000000205070B50B4E0121300000F0B2FCCE
:1004500004000221300000F0ADFC05000200210084
:10046000300000F005FD2A002100034806F016F8D0
:1004700070BDC04638420020C898041010B5002056
:1004800006F01CF8C0B2FF2813D02A2809D00B4B65
:100490001B68632B09D80A4AD0540133074A1360FA
:1004A0000AE0084B01221A70F1E7044B00221A609F
:1004B00002E0044B00221A7010BDC046D03C002060
:1004C00080410020E345002010B5074801F042FAC2
:1004D000011E064B186000D110BD054B1860054881
:1004E00005F0DCFFF8E7C04638420020A4430020B6
:1004F000003D0020F8980410F0B583B006000F000E
:1005000014001D003AF0C4FB036800933AF0C0FBEE
:1005100000230360089A01A92000B0470600019B50
:10052000A34211D03AF0B4FB0368222B0FD0002D68
:1005300002D0019B1C1B2C603AF0AAFB0368002B25
:1005400008D0300003B0F0BD38001BF0CBFC380001
:100550001BF0F8FC3AF09CFB009B0360F1E7000005
:10056000F0B583B0904B1B78002B7BD000260AE0BF
:100570000F2315E08D4B1A6857555C601B681B19DB
:1005800000221A7001368A4B9F5D2A2F13D0874BA9
:100590005D686C1C1A6808339A42E9D0834B9B68EB
:1005A0009C42E7D9012300930023002229007F48C1
:1005B00026F0B4F9DEE77D4C206805F06FFF0A20D5
:1005C00005F0E2FE052300227A49200026F058FCBF
:1005D000002849D0022300227749744826F050FCB5
:1005E000002800D16FE00223002274496F4826F0F2
:1005F00047FC002800D193E00223002270496B4899
:1006000026F03EFC002800D1B3E0052300226D490E
:10061000664826F035FC00280AD16B4B1B78002B6E
:1006200000D1B1E0684B00221A70684805F004FF61
:100630000423002266495D4826F022FC002800D1F0
:10064000A9E00024634B1C60574B1C7064220021FE
:10065000574805F053FD5548426800945E4B002111
:1006600026F088FA03B0F0BD504C05230022514912
:10067000200026F005FC0100626890421DD8121A85
:10068000052A00D90522494C00230093524B200033
:1006900026F070FA2168514805F000FF22680A230D
:1006A000009300234E494F48FFF726FF05F0F6FB65
:1006B000011C4D4800F040FD8CE7130002004B493F
:1006C0004B481BF057FC394C022300223A492000CA
:1006D00026F0D6FB0100626890421BD8121A022A4B
:1006E00000D90222314C002300933B4B200026F01E
:1006F00041FA21683F4805F0D1FE22680A230093A1
:10070000002337493748FFF7F7FE0100364800F06D
:1007100023FF68E713000200344935481BF02AFC28
:10072000224C022300222549200026F0A9FB0100CB
:100730006268904217D8121A022A00D902221B4C72
:1007400000230093244B200026F014FA22680A2389
:100750000093002322492348FFF7CEFE01002248E0
:1007600000F062FE48E713000200204920481BF019
:1007700001FC214805F060FE1B4801F0A7F80100CC
:100780001E4805F08BFE40E70F4B01221A701C48F3
:1007900005F052FE4CE71B4805F04EFE1A4805F0E6
:1007A0004BFEFFF74FFE4CE7E34500207C20002086
:1007B000804100200899041098990410B8990410F9
:1007C000CC120510109A041078130020189A041007
:1007D000489A0410D03C0020B49904106099041089
:1007E0009099041081F303103842002010990410EE
:1007F000289904109C990410BC990410F0990410D5
:10080000309A0410509A04108C9A0410F0B5C64621
:1008100000B586B005F04EFEFA20400002F07CFBE9
:10082000192001F041FAD026360680239B0473621A
:10083000182001F039FA80235B04B3620022012101
:10084000182001F0FFF9974E9749300008F03CFD61
:1008500007000621082001F0DDF90123009308229A
:100860000021300008F04CFD1022002102A805F004
:1008700045FC80235B020293F8235B0203938021F3
:10088000C9020491C0231B030493FA1CFB01120349
:1008900013430393802080050590844A13400393FB
:1008A0008022920102430592814B0B4304938022E4
:1008B000D20513430493052003F000F905F0E8FA8C
:1008C0007C4905F082FA804605F03CFB86B2002E9A
:1008D00028D0300005F0DCFA011C404605F06BFA28
:1008E0008721C90505F087FA05F02CFBC3B21B026E
:1008F0003604334302936B4E02AB3A0000213000C2
:1009000008F036FD33680122934313433360002619
:10091000112E09D8330000220021FF20FFF74AFDE5
:100920000136F5E70023E2E7FA20800002F0F4FA4E
:100930000026112E07D833000022FF210020FFF7E8
:1009400039FD0136F5E7FA20800002F0E5FA0026CD
:10095000112E07D83300FF2200210020FFF72AFDC7
:100960000136F5E7FA20800002F0D6FA524EFF2356
:1009700032221921300000F003FE0C21300000F07B
:10098000CBF91421300000F0E7FD2421300000F005
:1009900085FB300000F06BFF0121300000F0DEF934
:1009A000300000F093FF3DE002F052FBFA2292008B
:1009B000002304F013FB414B1B681C00DD17001BD8
:1009C000A941002904D131D1FA239B0098422DD9A5
:1009D000394800F0BFFC02F03BFBFA2292000023F2
:1009E00004F0FCFA354B186020E0354805F024FD92
:1009F000314800F06BFF1EE0324B00221A602DE000
:100A00009900314A002088500133112BF8D92D4B21
:100A10001B6800220021FF20FFF7CCFC2B4B1A683B
:100A20002B4B1A602B4B1B78002BBDD1D0231B0600
:100A30005B68DB01D9D5FFF721FDFFF791FDFFF7DB
:100A400043FD224B1A68224B1B689A4208DD1D4B5E
:100A50001B68112BD0D001331A4A13600023D4E74E
:100A60009A42DFDA174B1B68002B0BD1154B112272
:100A70001A600023112B09D89900134A00208850CE
:100A80000133F7E7013B0F4A1360F2E70D4B1B6898
:100A900000220021FF20FFF78DFC0C4B1A680C4B45
:100AA0001A60BFE700002050B89A0410FFFFFF9FB4
:100AB000000002300024F44A38420020043D0020A7
:100AC000A89A0410BC3B0020EC410020003D00200F
:100AD000984300207813002010B502490120FFF749
:100AE00015FC10BDFFFF000070B504000D000128CB
:100AF00005D0002C02D1074B9D4207D070BD054B9D
:100B00009942F6D1044808F0B1FEF2E7024808F035
:100B1000BDFEF3E7FFFF0000F036002082235B00FC
:100B2000C358002B20DD4368012B0BD0022B0FD0C4
:100B3000032B13D0042B25D1032925D0012925D03F
:100B4000002012E0042911D0022911D000200CE06D
:100B500001290FD003290FD0002006E002290DD073
:100B600004290DD0002000E0012070470120FCE79F
:100B70000120FAE70120F8E70120F6E70120F4E779
:100B80000120F2E70020F0E70120EEE70120ECE78A
:100B9000F0B5D6464F464646C0B504008846914655
:100BA0001F00002545606423C36003610126C662FF
:100BB000323BC3663E33C554253BC3673533802281
:100BC0005201C2500433C5507A3B88228350083208
:100BD0008350043283509633C5500433C5500433D8
:100BE000C5500433C5500433C5501033C5540433C5
:100BF000C5500433C5500433C5500433C550D430F8
:100C0000843A002105F07AFAE423E5540023E8222F
:100C1000A3500432A350F023E5501433E5500433BD
:100C2000E5501033E5541A23FF33E65403332E4ABC
:100C3000E2500433E5500433E55004339A46E5545A
:100C40002A23FF33E5540133E5542C23FF33E654C4
:100C50000133E5542E23FF33E5540133E5543023AB
:100C6000FF33E5540133E650043380221201E25091
:100C70000433E5543A23FF33E6540133E6543C236E
:100C8000FF33E6540133E6540433E5500433E554AE
:100C900008F068FA434663614B46E3611F21404612
:100CA00000F0B8FF00220021404600F0CBFF0021F9
:100CB000404600F0E1FFA761089B23621F21380036
:100CC00000F0A8FF00220021380000F0BBFF002147
:100CD000380000F0D1FF5346E5542000E0BCBA468E
:100CE000B146A846F0BDC0460AD7233C012907D02B
:100CF000022908D0032909D004290AD0002070470E
:100D0000D423C058FBE7D823C058F8E7DC23C058E9
:100D1000F5E7E023C058F2E70C2902D00A290CD0ED
:100D2000704780230B4AC250B43380221201C25054
:100D30005C33C367943BC366F2E78023064AC25024
:100D4000B43380229200C2502B3BFF3BC367283351
:100D5000C366E5E7FF0F0000FF0300009C235B0074
:100D6000C154704710B5012912D0022919D0882228
:100D70008258C16B891898240151816B8A1A9C2171
:100D80004250C26F991A8163D218C263036510BDC5
:100D9000C26F9C1A4465D21882650464426443663B
:100DA000E3E7C26F991AC165D21802668164C26412
:100DB0008366DCE710B5040070230122C2540129C8
:100DC00003D0022927D0002010BD00220020092ACC
:100DD00017D8E3691B03234909684B40E021C90187
:100DE0000B4021490B60214B042119601D4B1B68EE
:100DF000DB05FBD51B4B5B681B041B0CC0180132C9
:100E0000E5E70A2104F080F86066E36FC21A6265C4
:100E1000C318A365D8E700220020092A17D8236A3F
:100E20001B03104909684B40E021C9010B400E49E2
:100E30000B600E4B042119600A4B1B68DB05FBD5C8
:100E4000084B5B681B041B0CC0180132E5E70A2144
:100E500004F05AF8A066E36FC21AE265C31823666D
:100E6000B2E7C04600C0044000D0044000E00440A7
:100E700010B54166C36FCC1A446559188165826606
:100E8000D11AC1659B18036670230122C254012048
:100E900010BD30B595235B00C35C002B29D1036BDB
:100EA000426D934207DA416BC46DA14203DB046ECD
:100EB000A14200DC79E0934207DB816D8B4204DCC8
:100EC000416B046EA14200DD71E0816D8B4206DD55
:100ED000446BC56DAC4202DB056EAC4269DD9342EA
:100EE00005DB8B4203DC436BC26D934263DB4068DE
:100EF00017E0DC23C258D0231B065B68D340DB0716
:100F000010D5D823C258D02109064B68D3400122FE
:100F10001340E02404594968E1400A409A424CD009
:100F2000406830BDD823C158D0231B065B68CB4036
:100F3000DB070ED5D423C158D02424066368CB40E8
:100F400001210B406468D44021409942E8D102203D
:100F5000E7E7D423C458D0231B065B68E340DB07D4
:100F60000ED5D02424066368CB4001221340E02133
:100F700045586168E9400A409A42D1D10120D0E742
:100F8000E023C158D0231B065B68CB40DB07C7D5E5
:100F9000D0252D066B68E34001210B406C68D440DE
:100FA00021409942BCD10420BBE70120B9E70220CF
:100FB000B7E70320B5E70420B3E70320B1E7012931
:100FC00003D002290AD040687047436B026E9342F7
:100FD0000DDCC26D9342F6DA0420F5E7036B826DF7
:100FE000934206DC426D9342EDDA0120ECE70220E9
:100FF000EAE70320E8E710B5002902DB29DD00223B
:1010000018E0002205E082235B00C4580433C4507A
:10101000013A8A421DDD84235B00C358012BF2DDB7
:10102000013B842464000351F2E784235B00012424
:10103000C45001328A420CDA84235B00C3588224F4
:1010400064000459A342F0DA01338424640003519C
:10105000EFE784235B00C358012B11D0C023C35C8E
:10106000002B09D11933FF33C35C002B04D10933A2
:10107000FF3301225242C25084235B00C05810BD8E
:101080001833FF330022C2540C3BC35842689342CA
:10109000E4D18C235B000122C254DFE782235B0092
:1010A000C150002384225200835004328350043202
:1010B00083500432835004328354704770B5040067
:1010C00001F0C6FFFA229200002303F087FFA42557
:1010D0006359C01AA023E05001F0BAFFFA2292002F
:1010E000002303F07BFF605170BD70B50400A023A6
:1010F000C05800281FDD0C3BE558A8421BDA04F05D
:10110000CDFE061C280004F0C9FE011C301C04F0B2
:101110005CFE011CFE20800504F04DFE051C9023A2
:10112000E058636F584304F0B9FE291C04F063FED5
:1011300004F0D6FE606770BD70B504000D1C002180
:10114000281C04F089FE002808D00123E362C02295
:10115000A354281C04F0C4FE206170BD0549281C5E
:1011600004F049FE04F0BCFEE062C0230122E25418
:10117000EFE7C0460000204110B50400436E426C0A
:101180009B1AC36007D4206904F088FE011C20006C
:10119000FFF7D2FF10BD5B42C360F4E710B5040057
:1011A000012903D0022968D0002010BDC3691B03A8
:1011B000654A12685340E022D2011340634A13602B
:1011C000634B04221A60604B1B68DB05FBD55E4B4A
:1011D0005B681B041B0C23637022A25C002A34D1C1
:1011E000626C934202DC226C93422EDA236A1B0368
:1011F000554A12685340E022D2011340534A13600B
:10120000534B04221A60504B1B68DB05FBD54E4B39
:101210005B681B041B0C63639A225200A258E16EA8
:101220005018834211DA521A93420EDD226B616C20
:101230008A4210DD6264A366E26F991AE1659B1829
:101240002366C023E35C002B01D1206BADE72000B7
:10125000FFF792FFF9E7216C8A42F6DA2264A3666F
:10126000E26F991AE1659B182366C023E35C002BAB
:10127000EBD02000FFF780FFE7E7036A1B03324A49
:1012800012685340E022D2011340304A1360304BC1
:1012900004221A602C4B1B68DB05FBD52A4B5B68CC
:1012A0001B041B0C63637022A25C002A34D1E26C25
:1012B000934202DCA26C93422EDAE3691B03224ABA
:1012C00012685340E022D2011340204A1360204BA1
:1012D00004221A601C4B1B68DB05FBD51A4B5B68AC
:1012E0001B041B0C23639A225200A258E16E501873
:1012F000834211DA521A93420EDD626BE16C8A422C
:1013000010DDE2646366E26F991A61659B18A3655C
:10131000C023E35C002B01D1606B46E72000FFF7A0
:101320002BFFF9E7A16C8A42F6DAA2646366E26FEA
:10133000991A61659B18A365C023E35C002BEBD071
:101340002000FFF719FFE7E700C0044000D0044089
:1013500000E00440F0B5DE4657464E464546E0B54F
:1013600085B00400836E0093436E426881682B4809
:1013700005F094F80A2005F007F884235B00E35891
:101380000093E36FE26AE168254805F087F80A20D8
:1013900004F0FAFF01212000FFF700FF8146012140
:1013A0002000FFF7A3FCD0231B069B465E68C640C7
:1013B00001252E4003212000FFF798FC5B465F6863
:1013C000C7402F4002212000FFF7E8FE824602219D
:1013D0002000FFF78BFC5B465B68C3402B409846C0
:1013E00004212000FFF782FC5B465B68C3401D4080
:1013F000029543460193534600933B003200494611
:10140000084805F04BF80A2004F0BEFF05B0F0BC18
:10141000BB46B246A946A046F0BDC046C89A0410D5
:10142000109B0410549B0410F0B5C64600B5040090
:101430000D00C0230022C254404805F02FF8942329
:101440005B00E35C002B04D10023984600263C4F50
:101450004DE00A2004F098FF3A4804F0EDFF29001F
:101460002000FFF743FCD0231B065B68C340DB076B
:10147000F5D5002398460026314F21E0142140463F
:1014800003F06AFD002914D029002000FFF72EFC8C
:10149000D0231B065B68C340DB070ED52900200064
:1014A000FFF77CFE874200DD07008642E6DA060091
:1014B000E4E72E2004F068FFE6E701239C46E044C1
:1014C000214B984503D8214804F0B6FFDCE7C02340
:1014D0000022E25421E00A2001F01EFDC82140460E
:1014E00003F03AFD002911D001239C46E044FA2381
:1014F000DB0098450ED229002000FFF74FFE8742FF
:1015000000DD07008642E6DA0600E4E72E2004F05C
:101510003BFFE9E7C0230122E2540A2004F034FF34
:101520003A0031000A4804F0B9FFF61B31000948BF
:1015300004F0B4FF300080BCB846F0BD849B0410BA
:1015400010270000909B04100F270000BC9B041084
:10155000E89B0410149C0410C167436E5A1A42653C
:101560005B188365836E5A1AC2655B1803669A23FB
:101570005B00C3585A1A82635918C1637047000050
:1015800010B50C00A821445004314250B0228350C1
:10159000A839200000F03EFB640807231C40A3008C
:1015A0001A1992000B498C466244FF2111611B19E4
:1015B0009B00094A981802681204120C8021490104
:1015C0000843026063441868012282430B431A6097
:1015D00010BDC046000005400C00054070B5040079
:1015E00001292BD001F034FDFA229200002303F0F0
:1015F000F5FCB823E050043BE358C01AAC23E35891
:10160000984245DBBC23E358012B41D1A733E15875
:101610004A08A13B1A4093009B189B00204A94461D
:101620006344CA0739D51F491A6811408022520104
:1016300013431960BC230022E25029E0A823C058BC
:101640000833E25A4108A93B194001252E00064003
:101650008B005B189B0012498C466344054218D0EE
:1016600010218A40002E16D00E49186842400A40C8
:10167000802149010B431A6001F0EAFCFA22920032
:10168000002303F0ABFCB423E05008330122E25006
:1016900070BD3100E5E70449E7E70349C4E7C04608
:1016A0000C0005400000FFFFFFFF000010B5040024
:1016B000012A13D0032A2BD0022A41D0042A11D1A7
:1016C000032955D001290DD1436F013B4367FFF733
:1016D000F5FC01212000FFF781FF03E0042903D07E
:1016E00002290BD0606F10BD436F01334367FFF7D2
:1016F000E5FC01212000FFF771FFF3E7436F013B99
:101700004367FFF7DBFC01212000FFF767FFE9E7F4
:1017100002290BD00429E5D1436F013B4367FFF752
:10172000CDFC01212000FFF759FFDBE7436F0133B8
:101730004367FFF7C3FC01212000FFF74FFFD1E70C
:1017400001290BD00329CDD1436F013B4367FFF73C
:10175000B5FC01212000FFF741FFC3E7436F0133D0
:101760004367FFF7ABFC01212000FFF737FFB9E724
:10177000436F01334367FFF7A1FC01212000FFF70E
:101780002DFFAFE770B504000021FFF727FF952379
:101790005B00E35C002B25D06368002B66D12B3304
:1017A000FF33E35C002B5DD101212000FFF7F6FC45
:1017B00002212000FFF7F2FC256B9A235B00E15821
:1017C0006A1A606B431A002A2BDB002B2BDB9A4230
:1017D00034DAE36B984228DD02236360A360236D53
:1017E000636243E02000FFF754FB05006668864211
:1017F0000AD0C023E35C002B05D001002000FFF7D6
:101800008DF9002803D1656000236367C4E72A00CF
:1018100031002000FFF74AFF616F2000FFF7EBFB6C
:10182000F1E74A1BD1E70B1AD1E7A36B98421DDA07
:1018300004236360A360236D636217E09A4215DDA1
:10184000E36B9D4205DD03236360A360236DA36208
:101850000CE0A36B9D4209DA01236360A360236D52
:10186000A36203E02000FFF714FB606070BD30B599
:1018700083B004009A256D004359C06F1A1AE168BD
:101880001818521A0918009101212000FFF76AFA6E
:101890006359E06F1A1AE1681818521A0918009172
:1018A00002212000FFF75EFA01212000FFF776FCFD
:1018B00002212000FFF772FC2000FFF763FF236B7B
:1018C0006362636BA36203B030BD000070B50400B7
:1018D00084235B000122C250002545600121FFF7EF
:1018E0005DFC02212000FFF759FC2000FFF74AFFB2
:1018F000656795235B00E35C002B0FD160680028CF
:1019000023D00D33FF33E0500433226BE250043315
:10191000626BE25004330122E25470BD0C4804F0C3
:10192000BDFD02E02000FFF72DFF60680028F9D020
:1019300086235B00E0500433226BE2500433626B79
:10194000E25004330122E254E7E701204042E4E799
:10195000289C041070B5040094235B00C35C002B2A
:1019600025D095235B00C35C002B00D015E12F33FD
:10197000FF33C35C002B00D197E0456F002D00D1F1
:101980008FE09C235B00C35C002B01D06D42456758
:1019900082235B00E358002B00DC70E08C235B00AB
:1019A000E35C002B60D101235B42A36771E001215E
:1019B000FFF7F4FB02212000FFF7F0FB2000FFF708
:1019C00068FA0500666886420BD001002000FFF728
:1019D000A5F8002805D18A4B63678C235B000022A1
:1019E000E2542A0031002000FFF760FE656F002DF1
:1019F00035D09C235B00E35C002B01D06D42656712
:101A000082235B00E358002B16DD8C235B00E35C34
:101A1000002B0AD0636FA3672000FFF7B3FEA16F0E
:101A20002000FFF7E8FAA06710E02000FFF7AAFE09
:101A300001235B42A36709E0A2235B00E35C002B68
:101A400009D1636FA3672000FFF79CFE0023636743
:101A5000A56F280070BD2000FFF747FBF1E7A567E1
:101A60002000FFF78FFEF4E7636FA3672000FFF706
:101A700089FEA16F2000FFF7BEFAA06709E0A2234C
:101A80005B00E35C002B08D1636FA3672000FFF7C6
:101A900079FE00236367A56FDBE72000FFF725FBD6
:101AA000F2E78567FFF76EFED3E7D823C258D0234D
:101AB0001B065B68D340DB071FD5D423C258D02355
:101AC0001B065B68D340DB0731D5656F002D5FD007
:101AD0009C235B00E35C002B01D06D426567822391
:101AE0005B00E358002B44DD8C235B00E35C002BA0
:101AF00037D101235B42A36742E00221FFF74EFB8F
:101B000001212000FFF75BFA6060A3689842DCD0F7
:101B10002000FFF7D3FA6268A1682000FFF7C6FD36
:101B20006368A36097235B000122E254CDE70121A3
:101B3000FFF734FB02212000FFF741FA6060A36841
:101B40009842C2D02000FFF7B9FA6268A16820006D
:101B5000FFF7ACFD6368A36097235B000122E254AA
:101B6000B3E7636FA36719002000FFF744FAA0678B
:101B700006E0A2235B00E35C002B05D1636FA36743
:101B800000236367A56F64E72000FFF7AEFAF5E76F
:101B9000A5672000FFF7F6FD5BE7456F002D00D13C
:101BA00057E79C235B00C35C002B01D06D42456767
:101BB00082235B00E358002B13DD8C235B00E35C86
:101BC000002B03D101235B42A36711E0636FA3677E
:101BD0002000FFF7D7FDA16F2000FFF70CFAA067E8
:101BE00006E0A2235B00E35C002B05D1636FA367D3
:101BF00000236367A56F2CE72000FFF776FAF5E76F
:101C00001027000010B502490120FEF76DFF10BD3E
:101C1000FFFF000010B58300084A944663441C6827
:101C200040226240C02414408022520113431C60B1
:101C3000C000034B9C466044416010BD04C001409D
:101C40000040014080000B4B9C46604400290DD0B1
:101C50000823002A0CD004221343026853400C22AC
:101C60001340802252011043036070470023F0E7C5
:101C70000022F1E704C00140002909D08000094B8F
:101C80009C46604480239B011843402303607047B7
:101C90008000044B9C466044C0239B0118434023B2
:101CA0000360F4E704C0014010B501238340D02253
:101CB0001206936293610521FFF7ACFF10BD00008F
:101CC000EFF3108072B6034B1B68002BFBD0BFF301
:101CD0005F8F70472C0100D0BFF35F8F024B002253
:101CE0001A6080F3108870472C0100D0F8B5060008
:101CF0000C001500FFF7E4FFE308F718F15C07227A
:101D00002240012393400B4205D1DBB20B433B70D1
:101D1000FFF7E2FFF8BD2100280001F0B5FDF0B5A6
:101D200083B00600019114001F00FFF7C9FF00E017
:101D30000134BC420CD8E308F518F35C07212140BC
:101D400001228A401A42F3D1D2B21A432A7001E02A
:101D500001246442FFF7C0FF002C02DB200003B027
:101D6000F0BD019B002BF9D0089801F08DFD00001B
:101D7000034B1B6802201840431E9841C0B27047B5
:101D800000C00640002307E0054A9A189200BFF3FE
:101D90005F8F0021116001331F2BF5D97047C046BA
:101DA00040000034054A1078431CDBB21370172B37
:101DB00002D9130010221A707047C0467913002010
:101DC00000B583B00100044B00931F231822034881
:101DD000FFF7A5FF03B000BD449C0410D43C0020D5
:101DE000074B9B68103080001950BFF35F8FBFF323
:101DF0005F8F044B0021196082F310887047C04642
:101E000000ED00E0240100D010B5091A081F0A4BAC
:101E10009C466144094A914208D8C30706D4401041
:101E20004005400D064B184380B210BD054B064AD5
:101E30009921064801F08EFCFC070000FE0F00000F
:101E400000E0FFFF609C0410D89E0410909C0410DA
:101E500010B5091A04394C08090B08D14905490D78
:101E6000064A11430180064B2343438010BD054BB6
:101E7000054AA121054801F06DFCC04600F0FFFFB6
:101E800000F8FFFFE89C0410AC9E0410909C041026
:101E900001238340034A10681840431E9841C0B292
:101EA0007047C04600E100E0002904D0034B1860F1
:101EB000034B18607047034B1860FBE780E200E0BB
:101EC00000E100E080E100E010B50123834018004C
:101ED000FFF7EAFF10BD000001238340014A1360B1
:101EE0007047C04600E200E0024B9B681030800063
:101EF000C058704700ED00E010B5FFF7F5FF00286F
:101F000005D0054BC01A2F2803D8012010BD002092
:101F1000FCE70020FAE7C0467C13002070B50400FF
:101F20000D00EFF3108672B60C4B1B68002BFBD034
:101F3000BFF35F8F2000FFF7D7FF094B984201D016
:101F4000A84205D1320029002000FFF749FF70BDEB
:101F5000044B054A7C21054801F0FCFB240100D01C
:101F6000CD010010F89C04100C9F0410909C0410EC
:101F7000F0B5DE4657464E464546E0B589B0814647
:101F800001911500EFF3108A72B6744B1B68002B99
:101F9000FBD0BFF35F8F724B0027DF57002F40DB72
:101FA0007C00E419A4006F4824180622A2566C4B4A
:101FB0001A706D4B9A684B4610339B00D358984665
:101FC0001E001B1A2F2B38D9684B98452FD105AE10
:101FD000674B33807B009B46D8198000614B984645
:101FE000404402306349FFF70FFF7080624BB380BB
:101FF000FF23B371F571019B07935F44BF00474412
:102000000ECE0EC701231C43A04652464146484609
:10201000FFF7E6FE09B0F0BCBB46B246A946A046B3
:10202000F0BD564B564ACD21564801F093FB564B16
:10203000534AD421534801F08DFBC04340440C2146
:1020400002F08AFF002912D101239E43B3463300D8
:102050000026DA79AA4211D90621595600290CDB4B
:102060004A00521892001E003E4B9B18F1E7474B66
:10207000434AE021434801F06DFB1E00002E3BD097
:1020800005AB434A1A80813A5A800623F3560293DD
:10209000002B18DABD20000205AB9B469880029AFF
:1020A0009A71DD71019A0792301D2100FFF7ACFE95
:1020B000B080B7717B00DB199B002A4FFF185B468D
:1020C00007CB07C7A1E77800C0198000254BC018CF
:1020D0000430321DB388D90A1C2907D15B05591574
:1020E000023149005118FFF78FFED5E7294B2A4AE4
:1020F000A721244801F02EFB05AE1D4B33807B0049
:102100000293D8198000174A904602004244039275
:10211000901C1849FFF778FE7080039A101D5946ED
:10212000FFF772FEB0801D4B5A464146521A52418B
:1021300053431B0DB371F571019A0792029B9C46A4
:102140006744BF0047440ECE0EC7114B5A4613805A
:10215000813B538001231C43A04656E7240100D055
:10216000E44500207C13002000ED00E0CD010010CC
:1021700000A1FFFFAC13002000BDFFFF309D041045
:10218000F49E0410909C0410589D0410809D04102F
:1021900001480000F49D0410E49E0410AAAA000067
:1021A000F0B5CE46474680B583B006000D00EFF38C
:1021B000108872B6564B1B68002BFBD0BFF35F8FA5
:1021C000544B9A6834001034A300D758524B9F42A6
:1021D00007D0AF4200D199E00197504BFB1A2F2B4B
:1021E00009D9424639003000FFF7FAFD03B0C0BC00
:1021F000B946B046F0BD3000FFF74AFE81460021E7
:102200003000FFF761FEBFF35F8FFEF72CF8002868
:1022100001D0844211D10123019C9C430022A36878
:10222000AB4212D00622A256002A0DDB53009B18A7
:102230009B002200394CE418F1E72C21384B394A35
:10224000FF31394801F086FA2200AB4257D106250A
:102250006557002D39DB6B005B199A002F4B9B18DB
:102260009A68A260DA79E27106229A56A2719B7985
:102270005BB2002B10DABD200002A0806B005B195E
:102280009B00264AD318294A11789971157049463E
:102290003000FFF719FEA4E7201D6B005B199B00BF
:1022A0001E4A9B181A1D9B88D90A1C2907D15B0559
:1022B0005B15023359005118FFF7A6FDDDE71C4BF3
:1022C0001C4AA721184801F045FA002812D1002A1B
:1022D0000ED0FF239371184B9380144A1378A37187
:1022E000164B0E49641A644163431B0D1370CEE70D
:1022F000094FF2E7201D1249FFF7AAFDC7E7602149
:10230000104B084AFF31084801F024FA024F68E7F1
:10231000240100D000ED00E0CD0100107C1300206E
:102320000C9E0410C49E0410909C0410E4450020F0
:10233000F49D0410E49E041000BDFFFFAAAA000053
:10234000B6130020309E041070B504000126064329
:102350002D4BF31A2F2B28D8FDF785FF00282BD003
:10236000EFF3108C72B6294B1B68002BFBD0BFF328
:102370005F8F274D22002449521A524155432D0D9B
:102380006DB2244B9B6880001B58B3421BD00022C7
:10239000032A32D853009B189B001B49CB189B790A
:1023A0005BB2AB421FD00132F2E7C2211A4B1B4A8B
:1023B00049001B4801F0CEF988211A4B174AFF311A
:1023C000174801F0C7F9134B9B68174A1A50174B6F
:1023D0001A78A2711D70BFF35F8F0C4B00221A6038
:1023E0008CF3108870BD08005300991889004118BB
:1023F000FF268E710E4A8A80E9E7CC210D4B074AF1
:102400004900074801F0A6F97C130020240100D000
:10241000AAAA000000ED00E0389E0410909E04106F
:10242000909C0410609E0410CD010010E445002033
:1024300000BDFFFF6C9E04100022044B02E0044923
:1024400002C30132072AFAD97047C04600E400E00F
:102450008080808000B583B00100D0231B061B68FC
:102460000648C018064B009305230022FFF757FCCF
:10247000002801DB1F23181A03B000BDDC45002033
:10248000749E0410024B9C466144890001607047B1
:102490004000003470B505000C00080000F0CCFDD1
:1024A000200000F0D5FE0849200000F015FEFFF7DF
:1024B00079FC064B9C466044800068602C75A40043
:1024C000034BE55070BDC046D927001040000034D2
:1024D000844300200A4B1A68EFF3108172B6136828
:1024E000002BFCD0BFF35F8F054B1B68BFF35F8FE2
:1024F00000221A6081F3108840BF0020002170473D
:10250000AC45002010B5002922D003681B7B9942FE
:102510001ED8174B9C466144090183689C46614460
:102520000C684968002A19D003681B7B9A4215D8A9
:1025300083680F488446624412019A1810685368F1
:10254000020001208B4201D80ED00020C0B210BD85
:10255000084B094A3B21094801F0FCF8054B064AA3
:102560003B21064801F0F6F8A242EFD8EDE7C0465D
:10257000FFFFFF0F909F041080A204103C9F0410E7
:1025800010B500291ED0037B99421BD84B005B1865
:10259000033B0468A4466344002919D0002A1DD0D7
:1025A000914221D0002A25D0047BA24222D804687F
:1025B00050008018033820188170197800291FD125
:1025C0001A7010BD104B114A6821114801F0C2F871
:1025D000104B114A6F310E4801F0BCF80F4B0E4AF8
:1025E00070210B4801F0B6F80D4B0B4A71210848D9
:1025F00001F0B0F8044B054A6821054801F0AAF83B
:1026000041701A70DDE7C046C49F0410ECA20410AC
:10261000E09F041044A00410C8A2041050A00410AD
:102620005CA0041070B506000D001400002914D041
:10263000002A14D0806873689847002806D02200CA
:1026400029003000FFF79CFF280007E02A00210046
:102650003000FFF795FF200000E0100070BD08007B
:10266000FCE70000F0B583B00500009201930AABCF
:102670001C780BAB1F78002C26D003685A7B944241
:1026800007D10123002B19D1002C3BD1200003B02E
:10269000F0BD002C0CD01A7B944209D81A68630054
:1026A0001B19033BD3189B78002BEBD00123E9E7E0
:1026B0003E4B3F4A68213F4801F04CF83E4B3F4AB1
:1026C00065213F4801F046F803689C7B002CDBD075
:1026D00012D01A7B94420FD862001219033A19687B
:1026E0008C46624451789973002900D1D973002334
:1026F000937053701370C7E72C4B2D4A68212D48F7
:1027000001F028F8002C3AD02B681B7B9C4236D86D
:102710002C4BE3181B01AA6894466344009A1A6084
:10272000019A5A60089A9A60099ADA602E68002C19
:102730002BD030D0337B9C422DD863001B19033B38
:1027400032689446634400229A705A701A70717B02
:1027500022003000FFF766FF7073844200D095E7D7
:10276000287D009A019B00F0FFFC061E01D0002F7F
:1027700017D00C9B002B00D188E71E7086E7124B08
:10278000124A3B210E4800F0E5FF114B114AA521EA
:10279000084800F0DFFF054B054A6821054800F0B6
:1027A000D9FF2868210000F007FFE2E7C49F04106A
:1027B000ECA20410E09F041074A00410F8A204100E
:1027C0003C9F0410FFFFFF0F909F041080A2041095
:1027D000389F0410DCA20410F0B5DE4657464E4682
:1027E0004546E0B58BB00990002308938200B24BB8
:1027F000D658370032E0B14BB14A3F21B14800F022
:10280000A9FFB14BB14A3B21B14800F0A3FFB14B46
:10281000B14A8C21AE4800F09DFFB04BAE4A9021EA
:10282000AB4800F097FFA84BAD4A4021A84800F004
:1028300091FF2A686B68099800F096FC00239A467D
:1028400098467B68BFF35F8F00221A6086F310887A
:102850004346002B51D1002800D126E100F0F8FBBF
:1028600002000B1EC7DB002000210690079178684C
:10287000EFF3108672B601680029FCD0BFF35F8FBA
:10288000396888464C7B002C32D0BAD0097B8C4208
:10289000B7D8944965182D01B9688C4665442868F5
:1028A0006968801A99410029C3DC01D10028C0D190
:1028B0000021404600F076FEA042A8D12A686B684D
:1028C00006920793AB689846EB689A464346002BFE
:1028D000A3D0002CA7D03B681B7B9C42A3D8631ECF
:1028E000FA68D35C08931B02184338610020A8E7FC
:1028F00000239A4698460020A3E7089B1B02234327
:10290000994651461800C04705000E007A68EFF35B
:10291000108B72B6136859424B41D9B2002BF9D1D2
:10292000BFF35F8F002E26DB002E52DD3B69002BAC
:1029300053D04B4572D100F08BFB02000B1E73DBB2
:102940000100180052197341984202D804D19142F3
:1029500002D901225242D317002B6BDB00210491D4
:102960000131039102945146019141460091380092
:10297000FFF778FE49E03B69002BD5D04B451CD1D1
:10298000069A079B10001900521BB341994202D8C6
:1029900004D1904202D901225242D317002B12DBFC
:1029A0000021049101310391029451460191414665
:1029B00000913800FFF756FE27E04B4B464A9F2117
:1029C000434800F0C7FE3D4B3D4A3F213D4800F0E3
:1029D000C1FE002E01D1002DA8D13A68002C45D0AF
:1029E000537B9C422CD1012100293FD1D37B002B6A
:1029F00042D1D473002C52D03B681B7B9C424ED8F2
:102A0000FA68013C135D0133135500233B617A687A
:102A1000BFF35F8F13608BF310881FE7324B2E4A92
:102A2000A2212B4800F096FE244B254A3F21254841
:102A300000F090FE214B224A3F21224800F08AFEFE
:102A4000002C0DD0137B9C420AD863001B19033B5A
:102A50001068844663449B78002BC5D00121C3E7EE
:102A6000224B234A6821234800F074FE224B234A5C
:102A7000F621204800F06EFE002B0AD0117B8B421D
:102A800007D85900CB18033B11688C4663445C702F
:102A9000AFE7164B164A6821164800F05BFE0A4B5A
:102AA0000F4A40210A4800F055FE0BB0F0BCBB466F
:102AB000B246A946A046F0BD844300209CA0041065
:102AC0004CA20410B8A00410909F041080A204101F
:102AD0003C9F041014A1041064A204102CA1041043
:102AE000A4A20410FFFFFF0F38A10410C49F04101C
:102AF000ECA20410E09F041074A10410B8A204100A
:102B000010B50A4B5B68002B04D00A210848FFF778
:102B1000B9FC10BD054C2300064A1021206800F0C6
:102B200061FC03212000FFF7B5FCEEE7C413002091
:102B3000AC4500200525001010B5064B5B68002B46
:102B400001D0044810BD044B044A5C21044800F045
:102B500001FEC046C413002098A104108CA20410EA
:102B60003C9F0410F0B5DE4657464E464546E0B55C
:102B70008BB0804616001F00149B9A46159B994601
:102B800016AB1B789B461F2302AA9446634400227F
:102B90001A7032E0002809D042461268127B904237
:102BA00004D8421E4146C9688A5C48E0434B444A07
:102BB0004021444800F0CEFD0798002B75D05B46BD
:102BC000002B72D04946D04704000D0003000B4390
:102BD00000D171E0002946DB00F03AFA06000F1E32
:102BE00055DB36196F41B94202D804D1B04202D93F
:102BF00001267642F717002F4FDB43465A68EFF362
:102C0000108472B6136859424B41D9B20791002B18
:102C1000F8D1BFF35F8F1F3302AA94466344049335
:102C20000023039302934B460193534600933200D3
:102C30003B004046FFF716FD031EABD102004146A4
:102C40004968BFF35F8F00250D6084F31088002B67
:102C500029D01F2302A98C4663441B78002BABD1DB
:102C600012021043A9E732003B00361BAF41BB42C2
:102C700002D804D1B24202D901267642F717002FBA
:102C8000BBDA114B114A3F21114800F063FD0E4B96
:102C90000E4A3F210E4800F05DFD0B4B0B4A3F21D1
:102CA0000B4800F057FD012040420BB0F0BCBB4682
:102CB000B246A946A046F0BD0798F6E7909F0410DB
:102CC000A4A204103C9F04109CA004104CA2041069
:102CD000B8A00410F8B504004268EFF3108572B68E
:102CE000136858424341D8B2002BF9D1BFF35F8F2C
:102CF000CBB22268567BB3421BD10120002848D0BA
:102D0000206988422BD0090AC9B2002B2ED0206836
:102D1000007B83422AD8581EE668305C88422BD05C
:102D200000206368BFF35F8F00221A6085F310886C
:102D3000F8BD002B0DD0167BB3420AD85E00F61802
:102D4000033E1768BC466644B678002ED6D00120F4
:102D5000D4E7134B134A6821134800F0FBFC85218C
:102D6000124B134A4900134800F0F4FC124B134A6B
:102D70004021104800F0EEFC1900100000F01CFC8F
:102D80000028CED112210E4B094AFF31094800F02C
:102D9000E1FC23698B42C4D100232361C1E7C04613
:102DA000C49F0410ECA20410E09F0410BCA1041006
:102DB00034A204103C9F0410909F0410A4A204109D
:102DC000E0A10410F0B587B006000F00FDF74BFA44
:102DD00000281FD106246442E517A4197D41BD4295
:102DE00002D803D1B44201D900240025002D14DB00
:102DF0000494059500F02CF902000B1E13DBA41AB5
:102E00009D41002D17DC14D03000390000F02CF962
:102E100007B0F0BD234800F037FD234B234A3F2184
:102E2000234800F097FC204B204A3F21204800F027
:102E300091FC002CE8D0FFF77FFE00230293019362
:102E40001C4B0093049A059BFFF78CFE002818DAB0
:102E5000DAE7002300E00023002BD5D1164B1A68D7
:102E6000EFF3108172B61368002BFCD0BFF35F8FB5
:102E7000114B1B68BFF35F8F00221A6081F310882B
:102E800020BF0499059A0D4B5B6A9A42E3D80B4820
:102E9000806A884203D29A42DBD00123DCE7012317
:102EA000DAE7C046E4A104109CA004104CA2041070
:102EB000B8A00410D5240010AC4500200040054007
:102EC000F8B504000D0000F0C3F802000B1E10DB83
:102ED00020002900801859418B4202D804D1824237
:102EE00002D901204042C117002908DBFFF76AFF21
:102EF000F8BD064B064A3F21064800F02BFC034B69
:102F0000034A3F21034800F025FCC0469CA0041062
:102F10004CA20410B8A0041010B5FA2292000023AD
:102F2000002102F02BFFFFF7CBFF10BD70B584B07E
:102F300006000C00FFF700FE002302930193194BDB
:102F4000009332002300FFF70DFE051E11DD20BFA8
:102F5000FFF7F2FD2900FFF7BDFE134B5B6A9C42B1
:102F60001BD8114A926AB2421AD29C4213D0012055
:102F700014E00D4B5B6A9C4209D80B4A926AB2423C
:102F800007D29C4201D0012008E0002006E000208A
:102F900004E0012002E0002000E0002004B070BD49
:102FA0000120FBE7D52400100040054070B5EFF389
:102FB00005833F2018401038EFF3108C72B6194B80
:102FC0001B68002BFBD0BFF35F8F012319008140EA
:102FD000154A5163154A12781400C440234214D094
:102FE000114B5C6A8300124D5B599C4206D38300EF
:102FF000104C1B598A430D490A7007E00A4A031D09
:103000009B0099589950002300E00023BFF35F8F85
:10301000044A002111608CF31088002B00D09847DF
:1030200070BDC046280100D000400540E8450020A2
:10303000B8450020C03B002010B50100024A0348FB
:10304000FEF754FE10BDC04618A30410E245002050
:10305000044B5B6A034A906A1900536A9942F9D19A
:103060007047C04600400540084B5B6A01E0074BD3
:103070005B6A8B42FBD301E0044B5B6A8B4203D15A
:10308000024B9B6A8342F7D37047C046004005401D
:1030900070B504000D00FFF7DBFF02000B002000FD
:1030A0002900801859418B4202D804D1824202D9AA
:1030B00001204042C117002902DBFFF7D5FF70BD98
:1030C000024B034A3F21034800F044FB9CA004103C
:1030D000D8A30410B8A0041070B504000D00EFF3DD
:1030E000108672B61B4B1B68002BFBD0BFF35F8FA3
:1030F000002D1CD02000FEF7F7FE174B83420BD0AB
:1031000019002000FEF70AFF01212000FEF7DCFE77
:103110000123A340114A1360A400114BE550BFF3F3
:103120005F8F0C4B00221A6086F3108870BDA200DE
:103130000B4B0021D1500122A2400A490B78934346
:103140000B7005492000FFF72BF800212000FEF747
:10315000BBFEE4E7280100D0AD2F00103860054029
:10316000C03B0020E8450020F0B5DE4600B584B045
:103170000400150001921E000293FFF769FF0395FA
:103180008E4202D84ED185424CD9EFF3108B72B6E5
:10319000274B1B68002BFBD0BFF35F8F254A1778A6
:1031A0000125A540EBB23B431370234B5D63221D09
:1031B00092000199D150A2002049029850501B6AF8
:1031C0002B4212D11C4B1B6C2B4208D00020BFF3AA
:1031D0005F8F174B00221A608BF3108823E0184B87
:1031E000184AC121184800F0B5FAFFF731FF8E42A6
:1031F00014D802D1039B834210D80E4B1B78BB42DC
:103200000ED00D4B1D625D631F2004400123A340BF
:103210000E4A1360074B1F701E38D8E70020D6E710
:103220000120D4E7012004B080BCBB46F0BDC046FD
:10323000280100D0E845002000400540B8450020A6
:103240003CA30410BCA3041060A3041080E200E0BF
:10325000EFF3108C72B60B4B1B68002BFBD0BFF347
:103260005F8F01238340084A136208490A789A4312
:103270000A70BFF35F8F034B00221A608CF3108833
:103280007047C046280100D000400540E8450020B6
:1032900010B500291ED0037B99421BD84B005B1848
:1032A000033B0468A4466344002919D0002A1DD0BA
:1032B000914221D0002A25D0047BA24222D8046862
:1032C00050008018033820188170197800291FD108
:1032D0001A7010BD104B114A6821114800F03AFADB
:1032E000104B114A6F310E4800F034FA0F4B0E4A62
:1032F00070210B4800F02EFA0D4B0B4A7121084843
:1033000000F028FA044B054A6821054800F022FA2B
:1033100041701A70DDE7C046C49F0410F8A4041081
:10332000E09F041044A00410E4A4041050A0041072
:103330005CA0041070B506000D001400002914D024
:10334000002A14D0806873689847002806D02200AD
:1033500029003000FFF79CFF280007E02A00210029
:103360003000FFF795FF200000E0100070BD08005E
:10337000FCE7000010B50023437301338373037B24
:10338000C3730123027B9A4214D9002B0CD0027B19
:10339000934209D85A00D218033A01688C46624415
:1033A0000133DBB25370EDE70B4B0C4A68210C483C
:1033B00000F0D0F9002A09D0924207D801685300E2
:1033C0009A18033A8A180023537010BD024B034A1F
:1033D0006821034800F0BEF9C49F0410F8A404104B
:1033E000E09F041010B5017342608360FFF7C2FFD5
:1033F00010BD000070B50400081E00D170BD00298A
:1034000034D0237B994231D84B005B18033B2268B0
:10341000944663445A78002AF0D02DD0237B9A42F8
:103420002AD853009B18033B21688C4663445D787F
:1034300000215970002825D0237B984222D84300D0
:103440001B18033B21688C4663440021597001001E
:103450002000FFF76FFF060029002000FFF7CAFFDA
:10346000020031002000FFF765FFC7E7084B094A5B
:103470006821094800F06EF9054B064A68210648A4
:1034800000F068F9024B034A6821034800F062F932
:10349000C49F0410F8A40410E09F041070B5050048
:1034A0000C001600002928D02DD0037B99422AD881
:1034B0004B005B18033B0268944663445A78002A29
:1034C00027D19A78002A2AD11978FFF793FF0300B1
:1034D000002E03D0EA7B002A27D1EC73002B37D1D2
:1034E000002C49D02B7B9C4246D82B6861000C19DC
:1034F000033C1C190023637070BD224B224A382103
:10350000224800F027F9224B224A6821224800F085
:1035100021F9224B1C4A3A211C4800F01BF9204B90
:10352000194A3B21194800F015F9002A0AD0297BD5
:103530008A4207D851008A18033A29688C466244A7
:103540005470CAE7124B134A6821134800F002F97D
:10355000002B0BD02A7B934208D843001B18033B57
:103560002A689446634400229A70B9E7084B094AD6
:103570006821094800F0EEF8054B064A6821064824
:1035800000F0E8F8F0A30410D0A40410F8A304108D
:10359000C49F0410F8A40410E09F04104CA404106D
:1035A00074A4041070B504000A00457B2900FFF7DD
:1035B00075FF6073280070BD70B50400002967D0E6
:1035C000437B8B420ED0002911D0037B99420ED849
:1035D0004B005B18033B0268D0188378002B0CD19A
:1035E000002056E00121FFF7DDFF012051E0294BCB
:1035F000294A6821294800F0ADF8002B20D0227B11
:1036000093421DD85A00D318033B2268D21825686C
:10361000EB5C8B421AD0002B1BD0227B934218D834
:103620005A00D318033B2268D21853788B4216D025
:10363000002BF0D11A4B1B4A67211B4800F08AF877
:10364000144B154A6821154800F084F8437813702C
:1036500007E0104B104A6821104800F07BF84378CF
:10366000537000238370437001222000FFF716FF80
:103670000200617B814205D02000FFF75BFE607392
:10368000012006E0094B074A6D21074800F062F867
:10369000002070BDC49F0410F8A40410E09F041023
:1036A0006C9E0410B8A40410F8A3041098A404108D
:1036B00010B50400FEF776FB01002000FEF7E2FEE5
:1036C000FF232371BFF35F8F10BD10B50400FEF719
:1036D00069FB01002000FEF7D5FEFF2323710023C4
:1036E0006371BFF35F8F10BD034B9C46614489003B
:1036F0000160BFF35F8F70474000003410B50400D5
:103700000120FEF75DFB01002000FFF7EDFF10BD7B
:1037100000BEFDE703000A4A1268002A08D0084AE2
:103720001068C318074A9A4206D3054A13607047C7
:10373000034A05491160F2E701204042F7E7C0461D
:103740007C3D002000000420EC45002010B5FFF770
:10375000DFFF000010B582B00C001900002A0CD069
:10376000084B002A0BD00192009323000200064868
:1037700002F094FE0120FFF7CBFF044BF1E7034A70
:10378000F1E7C046E8A50410F8A50410B4990410A8
:1037900070B52B4B2B4A1A602B4B2C4A1A602C4BC2
:1037A0009A682A4B9343FAD12A4C01E008CC9847F7
:1037B000294B9C42FAD300F001F9234B274A1A60A7
:1037C000234B9B68DB43DB01FAD1254B40229A67F0
:1037D0005A671A67DA66234C09E0234B234A832190
:1037E0002348FFF7B7FF2000FFF762FF0834214BA3
:1037F0009C4209D22368002BF5D0012BEDD120008B
:10380000FFF763FF0834F2E71B4CA1681B4DC02291
:10381000280002F079FCA560FCF725FD002800D007
:1038200000BEFEF7AFFAFEF707FEFFF769F9144C8A
:1038300001E008CC9847134B9C42FAD370BDC046B8
:1038400000E00040BFCDFBFE00F00040FE7F3C00EA
:1038500000C00040001F0020101F0020FFFFFF01DC
:1038600000F00140F81E002028A60410B4A60410A1
:1038700048A60410001F002000ED00E0000000201A
:10388000101F00203C1F00200FB400B583B0084873
:1038900002F0D2FD049B002B07D005A9019118006E
:1038A00002F0DAFD034802F0C7FD0120FFF730FF08
:1038B000A4A6041004990410F8B5DE4657464E46F7
:1038C0004546E0B505000F0092460A9A93424ED352
:1038D0001A0E91461E020A9A00233000494601F052
:1038E0007DFB80466C006419A4002F4B9C46644409
:1038F0006368834200D260602B1FDBB29B46012BC2
:103900003BD9C0239B012343802212011A60AB00E4
:10391000264A9958002905D0506901F01DFB013055
:103920000138FDD153465A0123685A40E0231A401A
:1039300080235B0123431A605A46012A28D9802339
:103940009B012343802212011A6043466360424672
:1039500000233000494601F041FBAD00134B5851A4
:103960000120F0BCBB46B246A946A046F8BD104BAC
:10397000104A2D211048FFF7EDFE012FC1D1C023C1
:103980009B01234303221A60A368DB07FCD5C9E728
:103990002168794003220A401A60A2680123BB40D3
:1039A0001342FAD0CBE7C04600800040D83C00204C
:1039B000C4A6041038A70410D8A6041030B583B0EC
:1039C0000C2000F021F9FEF7D3F900280DD00023D8
:1039D00004E099002D4A2E4888500133092BF8D96C
:1039E0002A4B2C4A5A6203B030BD2B4B00229A67F7
:1039F00000F07CF9294B01221A60274B5B6C012BEC
:103A0000FBD1274B03221A60234B9B6B012BFBD16D
:103A1000013300930433234A0121234800F054F872
:103A200005230093214A0121214800F04DF8214B44
:103A30000093002202210420FFF73EFF1E4D009557
:103A40002B00002201210520FFF736FF104C0094C7
:103A50002300002200210720FFF72EFF00942300FF
:103A6000002200210820FFF727FF0A4B00932300C4
:103A7000002200210920FFF71FFF00952B000022E4
:103A800000210620FFF718FFADE7C046D83C002014
:103A9000006CDC021BB70000008000403CB000401E
:103AA00030B00040002F685900800240008C8647EB
:103AB00000C00240001BB700405973078000014B53
:103AC000C0587047D83C0020F0B5C64600B5040089
:103AD0000F0090461D000C2001F03EFA06003D4A02
:103AE00042443D4B9A4243D843011B1A9901C91ADB
:103AF000C90009188901404601F02EFA0200103A67
:103B000098235B009A4239D86B1E062B3CD8069B43
:103B1000013B062B38D8069B9D423BD343461A09EE
:103B2000B2423DD32D04069B1E0335432368002B70
:103B30003CDB2A4B9C424AD080225201284B1A601F
:103B4000284B1A60284B9B6811009943FAD12760D3
:103B5000A060231DC02292011A4321231360236811
:103B6000002BFCDAE5600823136080BCB846F0BD8A
:103B70001E4B1F4A11211F48FFF7ECFD1E4B1C4A2C
:103B800019211C48FFF7E6FD1C4B194A1C21194856
:103B9000FFF7E0FD1A4B164A22211648FFF7DAFD1F
:103BA000184B134A25211348FFF7D4FD22683F2301
:103BB0001340BB42BDD1A3681B051B0D8342B8D186
:103BC000E368EE22D2021340AB42B2D1CDE78022AD
:103BD0009201B3E780E84BD380F8A93200C00240DD
:103BE00000E0004000F0004000C0004048A7041082
:103BF0009CA80410A8A7041000A804101CA8041076
:103C000068A8041080A8041080239B000343014A85
:103C1000D362704700800540024B1A68024B5A601D
:103C20007047C046344200200080054010B50200B5
:103C3000164B8020C0051860154B164818600029E7
:103C40000AD0154BE021C9041960002A09D1124B92
:103C5000802212061A6010BD0C4BE021C9041960C5
:103C6000F3E753019B1A9800801800010B4B186072
:103C700080235B04984202D3084B094A1A60FFF77D
:103C8000CBFF054B8022D2051A60E4E700B0054067
:103C900008200140FCFF010000A005403442002044
:103CA000FFFFFF0010B5030010000C4A8024E4055C
:103CB0001460002B0DD001221343094A094CD46132
:103CC000094C5C401462516293620021FFF7AEFF21
:103CD00010BD034B0022DA61F7E7C04600B0054093
:103CE00000800540D3C007B02D3FF84F064BAA22F5
:103CF00012011A602F22DA60044B054A1A60024B47
:103D00005B68002BFBDA7047004002400060024015
:103D100000B0FA009A4200D288547047704710B53C
:103D2000002802D00B684968984710BD01000020A8
:103D300007E083001B185B00501C08601078C01857
:103D400030380A681378303BDBB2092BF1D9704761
:103D5000F0B5DE4657464E464546E0B583B093463D
:103D60001F000C9B9A460D9C0E9B99460F9B9B0730
:103D700003D0B8460F00060022E00192A346884611
:103D80004E46B9460700B44207D2551C4B46414641
:103D90002020B84701342A00F5E73D004F465C4635
:103DA000019B9B46B1464646B84637002E0007E0C9
:103DB000013C551C5346185D43463900B0472A0064
:103DC000002CF5D135003E0047460F9B9B0707D4DA
:103DD000100003B0F0BCBB46B246A946A046F0BDF9
:103DE000B0464E46B9462F005D46531BB342EFD254
:103DF000541C4B4641462020B8472200F5E7F0B559
:103E0000CE46474680B585B0944698460C9D0D9C9D
:103E10000EAB1B789946109A119B129EB7071CD4C3
:103E2000002B0CD0F7070AD54F46002F02D10C37D4
:103E3000374204D0013B02E030272F550134944231
:103E400001D21F2CF8D9F70707D59C4205D21F2CA9
:103E500003D830272F550134F5E7F70615D5770538
:103E600005D4002C03D0944224D09C4222D00F9A37
:103E7000102A2BD00F9A102A30D00F9A022A35D050
:103E80001F2C02D830222A5501341F2C05D84A464F
:103E9000002A31D02D222A55013403960293019431
:103EA000009543466246FFF753FF05B0C0BCB946D4
:103EB000B046F0BD621E012C06D00F9F102F01D01E
:103EC0001400D4E7023CD2E71400D0E7B206D1D404
:103ED0001F2CCFD878222A550134D1E7B206CCD591
:103EE0001F2CCAD858222A550134C9E71F2CC7D81D
:103EF00060322A550134C3E7720703D52B222A55B5
:103F00000134CAE73207C8D520222A550134C4E754
:103F1000F0B5DE4657464E464546E0B593B081467D
:103F20008A46089209931CAB10CB1B789B461E9DBA
:103F3000219B9846002C03D1102342469A43904679
:103F40008023DB0046461E4042461A4212D0002C17
:103F500022D000260EE03033D9B2771C0AAB995537
:103F60002900200000F0F8FFAC4216D31F2F14D810
:103F70003E0004002900200000F0EEFFCBB2092B28
:103F8000E9D94246920605D54121C918C9B20A3974
:103F9000C9B2E2E76121F8E7270043460693209B78
:103FA00005931F9B049303955B46029301970AAB0D
:103FB0000093099B089A51464846FFF720FF13B02B
:103FC000F0BCBB46B246A946A046F0BDF0B5DE4601
:103FD00057464E464546E0B595B0089009910A927D
:103FE0000B931E9E1F9C20AB1B789B46229B9946E1
:103FF000239D269B9A463300234303D11033524618
:104000009A4392468023DB0057461F4052461A428D
:1040100019D0330023432DD0002714E03033DAB217
:104020007B1C98460CABDA554A462B003000210029
:1040300000F0D4FFA5421FD819D043461F2B1BD830
:10404000474606000C004A462B003000210000F0D5
:10405000C5FFD3B2092BE1D95246920605D54122BC
:10406000D218D2B20A3AD2B2DAE76122F8E7B14501
:10407000E3D901E00023984653460693259B059318
:10408000249B04934B4603935B4602934346019360
:104090000CAB00930B9B0A9A09990898FFF7AFFEA7
:1040A00015B0F0BCBB46B246A946A046F0BD000024
:1040B000F0B5DE4657464E464546E0B591B08346DC
:1040C0008A460C9298461A9C08941B9D09952200DA
:1040D0002B002000290001F018FA002800D0E5E0AC
:1040E00001225242D74B2000290001F009FA002892
:1040F00000D0DBE001225242D34B2000290001F026
:10410000E9F9002800D0D1E000220023089E300009
:10411000099D290001F0DEF9002800D0DDE00898B3
:104120000999069007918023DB001E9A1A400D9290
:104130001E9A1A4201D106231C930698079904007F
:104140000D000A000600024300D1D1E0080D400531
:10415000400DBE4CA44660440A03120BBC4B1343F3
:104160001F0001F0E5F9BB4ABB4B01F068F9BB4AFF
:10417000BB4B01F03DF904000D000022B94B3000AB
:10418000390001F02CF9B84AB84B01F058F9020097
:104190000B002000290001F02BF901F0E1F9814624
:1041A00001F0C6F904000D00B14AB24B01F047F925
:1041B0000022B14B01F01CF901F0D2F90600AF4A20
:1041C000AF4B2000290001F03AF904000D00300047
:1041D00001F0AEF9AB4AAC4B01F031F902000B0033
:1041E0002000290001F0FBF804000D0002000B0084
:1041F00001F025F90A900B91A44BF31800261F0536
:1042000022002B002000290001F0F2F80E900F91FF
:1042100022002B0000208021C90501F0E0F80400F5
:104220000D0000229A4B0A980B9901F0EAF800223F
:10423000984B01F0DDF802000B000A980B9901F091
:10424000E0F80022944B01F0D3F802000B000A982A
:104250000B9901F0D6F802000B002000290001F0B4
:10426000C7F802000B000E980F9901F0CAF800225F
:10427000774B01F0BDF832003B0001F0E0F806009A
:104280000F0004000D00069A079B01F039F9002881
:1042900030D001235B429C46E14400227D4B30003C
:1042A000390001F0AEF804000D0023E01E9B0493DA
:1042B0001D9B03931C9B0293089A099B00920193F8
:1042C00043460C9A5146584600F0FCF811B0F0BC39
:1042D000BB46B246A946A046F0BD00230024069383
:1042E0000794069680231B069C46654407951AE7AB
:1042F000002399464B466333C62B1ED804261E9BCB
:104300001B0526D52B0023430FD0644A644B069827
:10431000079901F0EDF8002879D00022614B06984A
:10432000079901F0D7F8002871D01C9B4B4506DD9A
:104330004A46981A431E1C9303E00526DFE7002334
:104340001C938023DB001E9A1A431E920026002332
:1043500099461D9B9E4264D29F1B02231E9A1A40BF
:104360000A921E9A134202D0002E00D000274B461C
:10437000002B07D022002B000698079901F041F886
:1043800006900791002200230898099901F0A2F8ED
:10439000002848D1444B1E9A1340049303971C9B5A
:1043A0000293069B079C0093019443460C9A514646
:1043B000584600F087F8002E00D187E71E9B9B0629
:1043C0003DD54525441C4346020051462800D847A8
:1043D0004B46DA179B18534005220592013E04967E
:1043E000002203920A3202924A46D00F01900093B3
:1043F0004346220051465846FFF78AFD0A9B002B90
:1044000000D163E702005F460C9E1D9D54E01C9B9B
:10441000002B9ED00D9B002B9BD01C9B013B1C9323
:1044200097E7002799E7069C079D22002900802036
:104430000006844661440B0006920793AAE76525AF
:10444000C0E7C046FFFFEF7FFFFFEFFF01FCFFFF6C
:104450000000F03FFB799F501344D33FB3C8608BFB
:10446000288AC63F0000F83F61436F63A787D23FA9
:1044700071A379094F930A400000E03F1655B5BB80
:10448000B16B0240EF39FAFE422EE63FFF03000017
:1044900000002C4000002440000018402D431CEB7D
:1044A000E2361A3F80842E41FFF7FFFF541C43463B
:1044B00051462020B8472200931BAB42F6D3100090
:1044C00004E7C046F0B5DE4657464E464546E0B5E1
:1044D00095B00690079193469946209F1E9A1F9B80
:1044E0001000190001F011F8002831D101225242C8
:1044F000BF4B1E981F9900F0EDFF002837D1012215
:104500005242BC4B1E981F9900F0FAFF00283DD183
:104510000022B94B1E981F9900F0F2FF002850D1DD
:104520000022B64B1E981F9900F0D4FF002848D1F6
:10453000002200231E981F9900F0CCFF002850D1C4
:1045400000239846229B5B0500D4B6E0002458E087
:10455000229B0393219B029303230193A84B009377
:104560004B465A4607990698FFF7F2FB0EE1229B4D
:104570000393219B029304230193A24B00934B4688
:104580005A4607990698FFF7E3FBFFE00423229AB7
:104590001A4022990B4210D09B4B002A0FD00422C4
:1045A0002299039121990291019200934B465A4618
:1045B00007990698FFF7CCFBE8E0944BEDE7032260
:1045C000EEE7229B0493219B039302971E9B1F9C63
:1045D000009301944B465A4607990698FFF768FDE9
:1045E000D4E01E9A1F9B0020002100F0F8FE1E90D0
:1045F0001F9101239846A5E70CAB30221A55013FC5
:1046000001341F2C01D8092FF6D81E981F9900F0ED
:10461000A7FF050000F08CFF02000B001E981F99F9
:1046200000F0DDFEFA007A4B9B181A685B680A926C
:104630000B9300F004FF0890099100F0B5FF06000D
:1046400000F072FF02000B000898099900F0C7FE05
:104650000890099100226F4B00F052FF00282ED0E5
:104660000136300000F060FF02000B000A980B9941
:1046700000F036FF002801D001350026002F2CD194
:10468000280000F055FF02000B001E981F9900F053
:10469000A6FE06000F0000225E4B00F01BFF002864
:1046A00046D100225B4B3000390000F029FF002882
:1046B0003ED1EB073CD501353AE0062746E700221C
:1046C000544B0898099900F005FF0028D6D1002E18
:1046D00001D0F307D2D50136D0E7AA461F2C11D856
:1046E000013F0A21300000F037FC651C30310CAB73
:1046F00019550A21300000F02FFC092E0ED90600B2
:104700002C00EBE755461F2C0CD87B1E002F09D040
:104710000CAA302111551F000134F4E72B00554637
:104720001C00F0E71F2C03D80CAB2E221A550134C5
:104730001F2C10D80A21280000F0E6FB661C30313F
:104740000CAB19550A21280000F0DEFB051E01D034
:104750003400EDE734000323229A1340012B1CD0D0
:104760001F2C06D84346002B32D00CAB2D221A55F5
:104770000134229B0393219B029301940CAB009381
:104780004B465A4607990698FFF7E2FA15B0F0BC77
:10479000BB46B246A946A046F0BD219B002B13D0D4
:1047A0004346002B02D10C3313420FD0219B013B17
:1047B0002193190003E00CAB30221A5501348C42CE
:1047C000CED21F2CF7D9CBE72199F8E72199F6E74C
:1047D000229B5B0704D50CAB2B221A550134C8E78A
:1047E000229B1B07C5D50CAB20221A550134C0E70C
:1047F000FFFFEFFFFFFFEF7F65CDCD4165CDCDC161
:10480000B4A80410B8A80410ACA80410A8A80410F8
:10481000A0AA04100000E03FF0B5DE4657464E4621
:104820004546E0B593B082468B46904611930029E9
:1048300000D1EBE200275546119B1878002800D1E3
:10484000E7E2252809D07C1C43463A005946A84790
:10485000119B013311932700EEE7013311930024DC
:10486000119A11780B00203BD8B2102803D883008E
:10487000D048C3589F460B00303BDBB2092B2CD9E4
:104880002A292FD000230A93119B1A782E2A39D077
:1048900000239A46119A1378683BD9B2122976D828
:1048A0008B00C549CB589F4601231C43013211920E
:1048B000D6E702231C4301321192D1E704231C43A3
:1048C00001321192CCE708231C4301321192C7E751
:1048D00010231C4301321192C2E711A8FFF726FAF8
:1048E0000A90D1E71C9B1A1D1C921868002804DB53
:1048F0000A90119B01331193C6E702231C434342E4
:104900000A93F6E78022D20014435A1C11925A7877
:104910001300303BDBB2092B04D92A2A07D000232D
:104920009A46B7E711A8FFF701FA8246B2E71C9B47
:104930001A1D1C921868002804DB8246119B013363
:104940001193A7E70020F8E780235B002343511C65
:10495000119152786C2A01D01C0018E0C0239B00F2
:104960001C430131119112E080232343511C11910A
:104970005278682A01D01C0009E0C0231C43013191
:10498000119104E080235B001C4301321192119BC2
:1049900018780300253BDAB2532A00D92CE29300A1
:1049A000864AD3589F4680239B001C4301321192B4
:1049B000EDE780235B001C4301321192E7E7782882
:1049C00009D0582838D06F2838D0622838D0102322
:1049D0009C430A2600E01026582833D0692803D0CB
:1049E000642801D00C229443630501D5012294432D
:1049F00069282AD0642828D0A30500D59FE0E305C4
:104A000000D5B8E0630600D4CAE01C9A111D1C91C1
:104A10001168FF220A4005940A9B049353460393AE
:104A2000029600230193009243463A00594628001B
:104A3000FFF76EFA070027E01026CDE70826CBE740
:104A40000226C9E720221443C8E7A30520D4E305C2
:104A500050D4630666D51C9A111D1C911168FF2263
:104A60000A40D317D118594005940A9B0493534622
:104A700003930296D20F0192009143463A005946A1
:104A80002800FFF745FA0700119B01331193D3E685
:104A90001C9BDA1D07218A43110008311C91116803
:104AA00053689C46DB170C930D930C9A0D9B1000DA
:104AB00048400E90624653400F930E980F990C9AFF
:104AC0000D9B801A99410E900F9108940A9B0793B1
:104AD000534606930496002305936346DA0F029229
:104AE0000090019143463A0059462800FFF76EFABC
:104AF0000700C9E71C9A111D1C911268D317D11821
:104B0000594005940A9B0493534603930296D20F8F
:104B10000192009143463A0059462800FFF7F8F900
:104B20000700B1E7230605D51C9A111D1C9100232F
:104B3000D25E96E71C9A111D1C91126891E71C9B8E
:104B4000DA1D07218A43110008311C9108940A9B41
:104B50000793534606930496002305930293136824
:104B600054680093019443463A0059462800FFF7E1
:104B70002DFA070088E71C9A111D1C9105940A9BC9
:104B80000493534603930296002301931368009302
:104B900043463A0059462800FFF7BAF9070073E781
:104BA00023060DD51C9A111D1C9112681204120CBB
:104BB00031E7C046C0A8041004A9041050A904108D
:104BC0001C9A111D1C91126825E746281AD01C9BBF
:104BD0000733072293431A0008321C9204940A9A5E
:104BE0000392524602925C681B680093019443460C
:104BF0003A0059462800FFF765FC0700119B013376
:104C0000119319E620231C43E1E7672801D04728C8
:104C100002D180231B011C43452801D0472801D124
:104C200020231C431C9B0733072293431A0008329E
:104C30001C9204940A9A0392524602925C681B6882
:104C40000093019443463A0059462800FFF730FA92
:104C50000700119B01331193EEE502231A00224055
:104C6000924623421FD001241C9B1A1D1C927A1CC1
:104C70009146187843463A005946A8475346002BB8
:104C800016D1119B013311934F46D5E5561C43466F
:104C900059462020B847230032005C1C9D42F5D8BD
:104CA0003D001700E0E701233A002F000A9DF4E7DA
:104CB0004A46A9460A9D06E0571C4346594620200D
:104CC000C84734003A00661CA542F5D84D469146C7
:104CD000D7E71C9B1A1D1C921B6899465346002B54
:104CE00000D1013B4E4601E0013613003278002A24
:104CF00002D05A1E002BF7D14B46F21A1092802395
:104D0000DB0026001E401C4203D0524501D9534609
:104D1000109302231A0022400B92234205D03A003E
:104D200037004C46A946554620E03A00109B5F46A6
:104D3000B3462E0006E0551C434639002020B047FC
:104D400023002A005C1C0A999942F4D835005E467B
:104D5000BB46109437004C46A946554606E01D0058
:104D60000134561C43465946C84732002078002873
:104D700004D0002FF4D06B1E002DF0D117004D464B
:104D80000B9B002B03D1119B0133119354E50A9F18
:104D9000109B06E0561C434659462020A847230096
:104DA00032005C1C9F42F5D81700ECE721231C431E
:104DB0001C9B1A1D1C921B680093059408230493E6
:104DC00053460393102302930023019343463A0072
:104DD00059462800FFF79CF80700119B01331193F7
:104DE0002AE57C1C43463A0059462520A847119BDA
:104DF0000133119327001FE57C1C43463A005946B6
:104E0000A847119B01331193270015E50A4B9A46D9
:104E100010E5AA46474502D343465A1E00E03A0031
:104E2000434659460020D047380013B0F0BCBB467B
:104E3000B246A946A046F0BD1D3D00100EB410B507
:104E400085B0010007AC08CC0394012200945242C3
:104E50000348FFF7E1FC05B010BC08BC03B01847DD
:104E6000153D001000B583B0009313000A00010047
:104E70000248FFF7D1FC03B000BDC046153D00104D
:104E800000B585B0029003910121009313004A42BE
:104E900002A90248FFF7C0FC05B000BD1F3D00108D
:104EA00001480421014B1847F0130020D14E001097
:104EB00010B5010018231B8814221088984710BDD4
:104EC00010B5010018231B8816221088984710BDC2
:104ED000F0B5C64600B507000E0000250123984630
:104EE00000E00135B5420AD2AC003C192068FFF75A
:104EF000DFFF20600028F4D100239846F1E7404608
:104F000080BCB846F0BD0000124A936F9B0815D2D2
:104F10009066D166002905D0FFE7FFE7FFE7516FF4
:104F2000106F704704B580210906C2175140002850
:104F300000D0C84344F070FC002104BDF0B5146EED
:104F4000556E576F166FFFF7E3FF14665566576788
:104F50001667F0BD000000D0114A936F9B0813D272
:104F600010665166002905D0FFE7FFE7FFE7516FA4
:104F7000106F704704B5002801D00020C04344F0F2
:104F80004BFC002104BDC046F0B5146E556E576F42
:104F9000166FFFF7E5FF1466556657671667F0BD95
:104FA000000000D094464E4A926F9208624601D2A9
:104FB00030E0C046F0B54A4EB56F6D08FCD3346E94
:104FC000756E776F366F00F025F89446444A146684
:104FD0005566576716676246F0BDC0469446404A1C
:104FE000926F9208624601D258E0C046F0B53C4E3E
:104FF000B56F6D08FCD3346E756E776F366F00F049
:105000004DF89446364A14665566576716676246E9
:10501000F0BDC046002B24DB11D000293EDA00B5DC
:10502000C943404200D1013100F038F8C943404241
:1050300000D10131DB43524200D1013300BD002ACF
:10504000EBD1002801D1002905D00020C90FC907E4
:1050500001D1C043410800B544F0B6FB0022002353
:1050600000BD00B500290ADBDB43524200D1013309
:1050700000F014F8C943404200D1013100BDC943DA
:10508000404200D10131DB43524200D1013300F0F4
:1050900005F8DB43524200D1013300BD002923D182
:1050A000002B18D1002A0CD0BC460D4F38667A660A
:1050B00000210023FFE7FFE7FFE77A6F386F6746BD
:1050C0007047002801D00748010000B544F07CFB80
:1050D0000022002300BD02000B00002000217047C9
:1050E000000000D0FFFFFFFF002B00D0BFE0130C3B
:1050F00028D1002AE7D080B4114F39667A66FFE7DD
:10510000FFE730B4040C7B6F396F1B0423433B660D
:105110007A66FFE7FFE7FFE7C04684B27B6F3D6F2B
:105120001B0423433B667A66FFE7FFE7C046002384
:105130002C042D0C7A6F386F00196941B0BC704790
:10514000000000D0F0B594460025140E01D11202E3
:105150000835140F01D112010435940F01D19200CA
:105160000235D40F01D152000135D40B0134254F43
:105170007C66254C3C660E0C93B2FFE7FFE7FFE729
:105180003C6F6643360C7703BE467343DF0B5B040C
:10519000C01AB941130C7343DB18C91ACE08664311
:1051A000360CB64493B273431F0F1B01C01AB941AA
:1051B000130C73431F0B1B05C01AB941860D8F02D8
:1051C0003E436643360C092D24DB520A7243801A93
:1051D0007703460A6643360C16235B1BDE40DF402E
:1051E000BF1964466643821B7046043506330100CE
:1051F000D940A840C01900D30131A24206D20023F1
:10520000F0BD0000000000D0FFFFFFFF121B0130C7
:10521000F3D3F1E709277F1BFE406446A2B2724335
:10522000801A00D20139220C7243130C1204821A24
:1052300099410B007046043513370100F940A8402E
:10524000801900D30131002B02D1A2420AD2F0BD55
:10525000013000D30131121BFAD2013BF8D1A24236
:1052600000D2F0BD013000D30131121BF7E7F0B5D9
:105270001C0C00D080E00CB400251C0A04D11B02D9
:10528000160E3343120208351C0B04D11B01160FF6
:105290003343120104359C0B04D19B00960F33431A
:1052A00092000235DC0B02D192185B4101351C00E3
:1052B000971864410134464F7C66464C3C660E0CA0
:1052C000FFE7FFE7FFE7C0463C6F6643360C770316
:1052D000BE4697B27743C01B00D20139C01B00D233
:1052E00001399FB27743C91BC91B170C77437E0452
:1052F000FF0B801BB941CE086643360C0C2D33DB07
:10530000B644120B1F053A431B0B97B27743C01BE1
:1053100000D201399FB27743C91B170C77433E0473
:105320003F0C801BB941860D8F023E4366432927FF
:105330007F1BFE400C3D7746AF40BF1930BCA2B288
:10534000ABB272437343801A9941220C7243130C1F
:105350001204801A994102000B000137001BA94179
:10536000F9D2781E0021F0BD0C277F1BFE40774646
:105370007F0BAF40FF19E0E700245D1C07D0144FFE
:105380007D663966FFE7FFE7FFE7FFE73C6F95B211
:105390009EB265436643401BB141150C1E0C65432C
:1053A000664336042F0C3E432D04401BB141994205
:1053B00004D202000B0020000021F0BD01D1904278
:1053C000F7D3801A994101349942F2D3F6E70000ED
:1053D000000000D0FFFFFFFF48404140484018B4A4
:1053E0001B4B5B68FC46019308BD04DF4B57001064
:1053F00018B4174B1B68FC46019308BD00DF5557D6
:1054000000109446134A926F920809D2624618B46B
:105410000F4BDB68FC46019308BD0CDF0D5A0010F2
:105420000C4AF0B5146E556E576F166F6246FFF753
:10543000EEFF084A1466556657671667F0BD18B444
:10544000034B9B68FC46019308BD08DFB158001070
:10545000A8430020000000D0FFB55040424050401B
:1054600059404B40594000E0FFB5154F4C00640DCA
:1054700003D0BC4204D10C0314D80020090D090547
:105480005C00640D03D0BC4204D11C030AD8002286
:105490001B0D1B0501264B4009D44B4003D58B4205
:1054A00000D18242FFBD9942FCD19042FFBD0B4327
:1054B000DB1803431343F5D0C9434918FFBD00006F
:1054C000FF07000000B5FFF7CFFF01D0002000BDAF
:1054D000012000BD00B5FFF7C7FF804100BDC046F9
:1054E00000B5FFF7C1FF01D9002000BD012000BDBC
:1054F00000B5FFF7B1FF01D9002000BD012000BDBC
:1055000000B5FFF7A9FF804100BD012040054A001A
:10551000121804D85A00121801D800207047012030
:1055200070470020704700000021002805D1704717
:10553000C1174840401AFAD0C90713B5064B1B687B
:1055400098470CBC441CA2401005120B0349091BD0
:1055500009051943114310BDA84400201F04000091
:1055600010B54C00620D8023D218DB00D21A5B0507
:105570007E2A10DD9E3A13DACC1709034908194335
:105580005242D140640001341532202A05DAD0405D
:105590000843604310BD002010BD0846604310BDA5
:1055A000C80FC018013810BD18B4044B5B6AFC4624
:1055B000019308BD24DFBD5B00100000A84300205C
:1055C00018B4044BDB6DFC46019308BD5CDFC95C7D
:1055D00000100000A8430020C94211D300B54900C3
:1055E0004908002200F018F8002904D400224042A3
:1055F0008A41114600BD80210906002000BD00003F
:1056000018B4044BDB6EFC46019308BD6CDFCB5B2A
:1056100000100000A843002018B4044B9B6FFC4608
:10562000019308BD78DFE75B00100000A84300206D
:1056300018B4044BDB6FFC46019308BD7CDF555C5E
:1056400000100000A843002070B513231C78012C23
:1056500014D0012C14DC022C02DC1F4A1F4B9A646C
:105660001F48FFF725FC1F4B186070BD99001A48B2
:105670001A4A885001331F2BF8D9EAE70023FAE7CA
:105680001948FFF71DFC05001848FFF719FC023800
:1056900003789B007F2B19DD802229000F4800F042
:1056A00033FD022CD7D1124B1A88B5231B029A4224
:1056B00009D1104B1A88104B9A4204D10F4B1A880B
:1056C0000F4B9A42C7D00020FEF7DEF80D4B0E4A72
:1056D00032210E48FEF73EF811570010A843002073
:1056E0004C330000A84400205344000053460000FF
:1056F00054380000D8380000494600009C380000AB
:1057000059460000F0AA0410B4AB041050AB0410CA
:1057100007B56046002800D100BE01880A0A0230A1
:10572000DF2AFAD1C9B2820804D302884088000473
:10573000104300E00068024A5050039007BD00008B
:10574000A84300200FB403BC0CBCF0B50124E4074F
:10575000634000E0F0B50C0DCF0F661E3605891BC7
:10576000640503D3C943404200D30131640D03D023
:10577000661CF60A07D0E41B00207F00791C89070D
:105780008912803C24031D0DDF0F6E1E36059B1B06
:105790006D0503D3DB43524200D301336D0D03D0BB
:1057A0006E1CF60A07D0ED1B00227F007B1C9B07B6
:1057B0009B12803D2D032F1B661B58D4A446202E20
:1057C00046DA20371400BC401D00BD40F240334192
:1057D0002A4380185941CB0F05D0C943C04300224A
:1057E00064425041514162464D0D28D10D0D07D103
:1057F00000281FD0241940414941013A0D0DF9D02C
:10580000640006D3013000D30131002C01D14008DF
:105810004000013A0BD4941CE40A04D1120511444F
:10582000DB071944F0BDD907204B194300E0D90725
:105830000020F0BD0029DDD1002CDBD1F0BD01320C
:10584000C6074008CD0728434908002EE1D0D9E714
:105850003C2E29DA203E40371400BC4000D0012401
:10586000F24014431A00BB401C43D317ACE7AC46CC
:10587000202F08DA20360400B4400D00B540F8406F
:1058800039412843A5E73C2F0CDA203F403604007D
:10589000B44000D00124F84004430800B1400C4358
:1058A000C117EAE710001900002494E70000F07F18
:1058B000F0B50C0D661E3605891BE60A6405640DFD
:1058C00002D0651CED0A04D0002001210905803CAE
:1058D0002403A4461C0D671E3F05DB1BE70A640575
:1058E000640D02D0651CED0A04D0002201231B05C3
:1058F000803C24037740644497B484B296B27443E6
:10590000070C7E43150C6F4380B26843361802D3F0
:10591000012000043F183004350C00197D418446F5
:1059200088B29AB250430C0C62431F0C7C438EB277
:105930007E43921902D301263604A4191604170CCB
:105940003618674101BC81B29AB25143040C6243DC
:105950001B0C5C4380B25843121802D30120000490
:1059600024181004130C401863412D185E410020C8
:10597000474106BC88B293B258430C0C6343120CE7
:10598000544389B251435B1802D3012109046418BE
:1059900019041A0C091862416D185641002047413C
:1059A00018BCF902720D1143F0026A0D1043ED02AA
:1059B0000A0D03D16D1940414941013B124E9B1B19
:1059C0007600B3420ED26D0007D30130002671413C
:1059D0006646354301D1400840001B05C918E4075D
:1059E0002144F0BD0BDA013306D1013004D101317D
:1059F0004F0D01D04908F2E7E1070020F0BD013664
:105A000031050020EBE70000FF030000F0B51C0D9E
:105A1000671E3F05DB1BE70A6405640D02D0661CA8
:105A2000F60A04D0002201231B05803C2403D02564
:105A30002D060026F6432E661E096E66CE0FF61959
:105A4000B44649004F0D02D07E1CF60A03D0002058
:105A50000021403F3F033E1BB600B444013F7F0599
:105A6000C91B49082E6F013676089C02950D254307
:105A70007543ED137543AD1301356D10F603761BB9
:105A80000CB4CC02450D2C43A2B2B3B25A43270C3E
:105A90007B43350C6F43A4B26C431B1902D3012422
:105AA00024043F191C041D0CA4187D4124196D41C8
:105AB000009A91B2ACB26143170C7C432B0C5F434C
:105AC00092B25A43A41802D301221204BF1822042E
:105AD000230C52187B41019C6C431B19520ED901B7
